S00F000068657846696C652E7372656350
S2140000000C94FD070C941E080C941E080C941E08F5
S2140000100C941E080C941E080C941E080C941E08C3
S2140000200C941E080C941E080C941E400C94AB3FB7
S2140000300C941E080C941E080C941E080C941E08A3
S2140000400C941E080C941E080C941E080C941E0893
S2140000500C941E080C941E080C941E080C941E0883
S2140000600C941E080C94061A0C94581A0C942F1A0A
S2140000700C94811A0C94D31A0C94AA1A0C941E0889
S2140000800C941E080C941E080C941E080C941E0853
S2140000900C941E080C941E080C941E080C941E0843
S2140000A00C941E080C941E080C941E080C941E0833
S2140000B00C941E080C941E080C942A0F0C94840DA5
S2140000C00C941E080C949C0C0C94DA0C0C941E08D1
S2140000D00C941E080C941E080C941E080C941E0803
S2140000E00C941E080C941E080C94771B0C94C91BC9
S2140000F00C94A01B0C94F21B0C94441C0C941B1C1C
S2140001000C941E080C941E080C941E080C941E08D2
S2140001100C941E080C941E080C94A8260C941E081A
S2140001200C941E080C941E080C941E080C941E08B2
S2140001300C941E080C941E080C941E080C941E08A2
S2140001400C941E080C941E080C941E080C941E0892
S2140001500C941E080C941E080C941E080C941E0882
S2140001600C94FC1A0C944E1B0C94251B0C94FA252C
S2140001700C941E080C941E080C941E080C941E0862
S2140001800C941E080C941E080C941E080C941E0852
S2140001900C941E080C941E080C941E080C941E0842
S2140001A00C941E080C941E080C941E080C941E0832
S2140001B00C941E080C941E080C941E080C941E0822
S2140001C00C941E080C941E080C941E080C941E0812
S2140001D00C941E080C941E080C941E080C946D1C9F
S2140001E00C94BF1C0C94961C0C941E080C941E08B1
S2140001F00C941E080C941E080C941E08DC14E914BB
S214000200F714041512154D155A158515BB16C81684
S214000210D516E216EF160A1717172417084AD73B03
S2140002203BCE016E84BCBFFDC12F3D6C74319ABDC0
S21400023056833DDA3D00C77F11BED9E4BB4C3E91E4
S2140002406BAAAABE000000803F05A84CCDB2D44ED3
S214000250B93836A9020C50B9918688083CA6AAAAD5
S2140002602ABE000000803F07634236B79BD8A71A15
S21400027039685618AEBAAB558C1D3CB7CC5763BD23
S2140002806DEDFD753EF6177231BF000000803F0829
S214000290000000BE922449123EABAAAA2ABECDCCCC
S2140002A0CC4C3E00000080BEABAAAAAA3E000000CE
S2140002B000BF000000803F0000000000084178D327
S2140002C0BB4387D1133D190E3CC3BD4282AD2B3EC6
S2140002D068EC8276BED98FE1A93E4C80EFFFBE0166
S2140002E0C4FF7F3F0000000000000C948A0C0C94B2
S2140002F004150C9429250C9404410C94EF160C94C8
S214000300D5160C94F7140C94032E0C94C4200C945D
S214000310DC140C94C8160C94B1210C9485150C941E
S214000320C1080C9424170C94CB350C944D150C94E2
S214000330050C0C948C200C94BB480C945A150C9409
S214000340991D0C94BB160C94C9400C94E9140C949B
S214000350E2160C94520F0C9417170C948E260C94DD
S214000360AC0F0C9412150C940A176E616E00696E31
S214000370660000407A10F35A00A0724E180900106A
S214000380A5D4E80000E87648170000E40B54020005
S21400039000CA9A3B000000E1F50500008096980030
S2140003A0000040420F000000A08601000000102759
S2140003B000000000E80300000000640000000000E9
S2140003C00A00000000000100000000002C76D8881B
S2140003D0DC674F0823DFC1DFAE59E1B1B796E5E32E
S2140003E0E453C63AE651997696E8E6C28426EB8947
S2140003F08C9B62ED407C6FFCEFBC9C9F40F2BAA5E4
S2140004006FA5F490055A2AF75C936B6CF9676DC17B
S2140004101BFCE0E40D47FEF520E6B500D0ED902E7F
S2140004200300943577050080841E080000204E0ADD
S214000430000000C80C333333330F986E128311411B
S214000440EF8D2114893BE65516CFFEE6DB18D184E6
S2140004504B381BF77C1D901DA4BBE424203284720D
S2140004605E228100C9F124ECA1E53D274552524F9A
S214000470523A204D657373616765206C656E6774CC
S21400048068203020666F72206D73675F6E6F6465DC
S2140004902E0D0A004572726F723A204D65737361B5
S2140004A0676573206F766572666C6F772E20546F63
S2140004B06F206D616E79206D65737361676573205B
S2140004C072656365697665642E2054727920737050
S2140004D0656564696E6720757020796F7572206C2B
S2140004E06F6F7020696620796F752073656520745C
S2140004F06869732061206C6F742E0D0A0045727255
S2140005006F722120576520676F742061686561648B
S214000510206F6620746865207461736B206C697345
S2140005207420616E64206E6F77206E6F7468696EDB
S214000530672077696C6C20657865637574652E0D29
S2140005400A0009545749207761736E277420726534
S2140005506164792E0D0A000D0A4368616E6E656C43
S21400056073206172652070726F6261626C792062BE
S2140005706C6F636B656420627920796F757220708A
S214000580726576696F7573206D6573736167652E26
S2140005900D0A0041626F7274696E672049522073BB
S2140005A0656E64207768696C6520747279696E6719
S2140005B03A0D0A09004552524F523A204D65737360
S2140005C061676520657863656564732049525F429C
S2140005D055464645525F53495A452E0D0A00455228
S2140005E0524F523A204D657373616765206C656E95
S2140005F0677468203020696E20706572666F726D51
S2140006005F69725F75706B6565702E0D0A00094430
S2140006106F6E652077616974696E6720666F7220F9
S2140006205457492E20495220706F77657273207395
S2140006306574207375636365737366756C6C792E69
S2140006400D0A00095457492074696D656F7574204A
S2140006507768656E2073657474696E6720495220EA
S214000660506F7765727320000957616974696E6709
S21400067020666F72205457492E2E2E0D0A0009252B
S21400068069092568750D0A004469737420286D6D24
S2140006902920706572206B696C6F737465700D0A23
S2140006A000096469723A20256409004D6F746F7200
S2140006B02056616C7565730D0A00496E206F726472
S2140006C0657220746F20676F20696E20646972659A
S2140006D06374696F6E2025687520666F72202575B5
S2140006E0206D6D2C2074616B696E672025752073F4
S2140006F0746570732E0D0A004552524F523A2063AD
S214000700757272656E745F6F66667365743A2025DF
S214000710687520616E6420746F74616C5F74696DB7
S214000720653A20256875206E6F7420657175616C5A
S214000730210D0A000D0A4552524F523A2053657257
S21400074069616C20696E7075742062756666657284
S214000750206361706163697479206F662025752057
S214000760636861726163746572732065786365653A
S2140007706465642E0D0A004552524F523A20556E5B
S214000780657870656374656420706F7765723A206B
S214000790256868750D0A0021212109476F742031EC
S2140007A03520636F6E7365637574697665206E6F4A
S2140007B07468696E67732066726F6D2073656E73FA
S2140007C06F72202568752E092121210D0A004552D9
S2140007D0524F523A20506F73742D72657475726E54
S2140007E02C207461736B2073746F7261676520636D
S2140007F06F6E73697374656E637920636865636B87
S214000800206661696C7572652E0D0A00506F7374F0
S2140008102D63616C6C2C207461736B2025582068E6
S2140008206173206E6578745F70747220706F696E85
S21400083074696E67206F757473696465206F6620CF
S21400084061727261792E0D0A004552524F523A205B
S2140008505072652D63616C6C2C207461736B207311
S214000860746F7261676520636F6E73697374656E0B
S214000870637920636865636B206661696C75726571
S2140008802E0D0A005072652D63616C6C2C2074610D
S214000890736B20686173206E6578745F7074722065
S2140008A0706F696E74696E67206F757473696465BE
S2140008B0206F662061727261792E0D0A00095461FC
S2140008C0736B202570202825702920736368656463
S2140008D0756C656420617420256C75207769746872
S2140008E020706572696F6420256C752C20256C75E8
S2140008F02063757272656E740D0A005461736B2006
S2140009005175657565202825686875207461736B58
S214000910732C202568687520657865637574696E24
S21400092067293A0D0A004E6577205461736B2025BF
S214000930702028257029207363686564756C65646B
S21400094020617420256C7520776974682070657244
S214000950696F6420256C752C20256C752063757274
S21400096072656E740D0A004552524F522120546132
S214000970736B206C697374206861732073656C6692
S2140009802D7265666572656E63652E0D0A004552AA
S214000990524F523A207363686564756C65725F6D7A
S2140009A0616C6C6F632072657475726E656420612D
S2140009B0206E65775F7461736B20706F696E746507
S2140009C072206F757473696465206F66207468653D
S2140009D0207461736B2073746F7261676520617237
S2140009E07261792E0D0A004552524F523A204E6FD0
S2140009F020656D7074792073706F7420666F756EE5
S214000A006420696E207363686564756C65725F6DDB
S214000A10616C6C6F632C20627574206E756D5F74EC
S214000A2061736B73207761736E27742067726561DC
S214000A30746572207468616E206F722065717561CE
S214000A406C206D61785F7461736B732E0D0A0009FC
S214000A50417474656D7074696E6720746F2072657A
S214000A6073746F7265207461736B5F6C6973742046
S214000A702862792064726F7070696E6720616C6C92
S214000A80206E6F6E2D706572696F64696320746185
S214000A90736B732E0D0A09496620796F75206F6E89
S214000AA06C79207365652074686973206D6573734F
S214000AB061676520726172656C792C20646F6E27A1
S214000AC07420776F72727920746F6F206D7563680B
S214000AD02E0D0A004552524F523A20496E2073633B
S214000AE0686564756C65725F667265652C207467F0
S214000AF074202825582920776173206F75747369D0
S214000B0064652076616C6964205461736B2A207278
S214000B10616E67652E0D0A004D657373616765200B
S214000B206C656E677468207761732025642063683F
S214000B306172732C207768696368206578636565E1
S214000B40647320746865206D6178696D756D206FBB
S214000B506620256400636F6D6D616E642073747229
S214000B60696E673A2025732C206C656E6774683A48
S214000B702025640D0A0042726F61646361737469B4
S214000B806E6720636F6D6D616E643A202225732256
S214000B902C206F66206C656E6774682025692E0DA4
S214000BA00A004D792049442069733A20253034588C
S214000BB00D0A000920227365745F6C656420626705
S214000BC07220352033302030222067697665732006
S214000BD06120626C7569736820677265656E2E0D9C
S214000BE00A0009206F726465722C20696E6469635E
S214000BF06174696E672074686520627269676874DC
S214000C006E657373206F6620746865206173736FFA
S214000C10636961746564204C4544732E2045786191
S214000C206D706C653A200D0A0009204C6574746579
S214000C30727320722C672C622C20696E20616E798C
S214000C40206F726465722C20666F6C6C6F776564BB
S214000C502062792076616C75657320302D323535CB
S214000C602C20696E2073616D65200D0A0009476FA0
S214000C707420636F6D6D616E64207365745F6C6560
S214000C80642C2062757420617267756D656E74736E
S214000C902028257329207765726520696E76616C39
S214000CA069642E20466F726D61742073686F756C70
S214000CB0642062653A0D0A00476F742061646A75A5
S214000CC073745F6D6F746F727320636F6D6D616E9A
S214000CD0642E20646972656374696F6E3A202568B5
S214000CE068752C204E65772053657474696E67733B
S214000CF03A202825642C2025642C202564290D0AFA
S214000D0000737472746F6B2072657475726E6564AE
S214000D10204E554C4C206F6E2074686972642076A5
S214000D20616C2E0D0A00737472746F6B207265749A
S214000D3075726E6564204E554C4C206F6E20736540
S214000D40636F6E642076616C2E0D0A007374727485
S214000D506F6B2072657475726E6564204E554C4CD0
S214000D60206F6E2066697273742076616C2E0D0A91
S214000D700042616420646972656374696F6E2E2038
S214000D80476F743A20256868752E0D0A00737472D2
S214000D90746F6B2072657475726E6564204E554C68
S214000DA04C206F6E20646972656374696F6E2E0DD9
S214000DB00A00476F74207365745F6D6F746F72738B
S214000DC020636F6D6D616E642E2064697265637456
S214000DD0696F6E3A20256868752C2076616C733AC8
S214000DE0202825642C2025642C202564290D0A0043
S214000DF0737472746F6B2072657475726E6564209E
S214000E004E554C4C206F6E20746869726420766173
S214000E106C2E0D0A00737472746F6B207265747595
S214000E20726E6564204E554C4C206F6E2073656361
S214000E306F6E642076616C2E0D0A00737472746F88
S214000E406B2072657475726E6564204E554C4C202E
S214000E506F6E2066697273742076616C2E0D0A00C0
S214000E6042616420646972656374696F6E2E204700
S214000E706F743A20256868752E0D0A0073747274B4
S214000E806F6B2072657475726E6564204E554C4C9F
S214000E90206F6E20646972656374696F6E2E0D0A2A
S214000EA000723A202568752C20673A202568752C34
S214000EB020623A202568750D0A0077616C6B206405
S214000EC06972656374696F6E2025752C206E756D6A
S214000ED05F73746570732025750D0A0072657072F5
S214000EE06F675F656E6400726570726F675F6265DC
S214000EF067696E00725F656E6400725F737461721C
S214000F0074007072696E745F6D6F746F725F736574
S214000F107474696E677300726570726F675F74656C
S214000F2073740077726974655F6D6F746F725F7348
S214000F30657474696E6773007265736574007461B6
S214000F40736B7300746774006D73675F74737400FB
S214000F506D7367007467745F636D6400636D64002F
S214000F6062726F6164636173745F6964006765745D
S214000F705F6964007365745F6C656400726E625FBF
S214000F8062007365745F646973745F7065725F7323
S214000F907465700061646A5F6D6F746F727300735E
S214000FA065745F6D6F746F72730073746F705F77C4
S214000FB0616C6B00636F6C6C007365745F697200C4
S214000FC06765745F7267620077616C6B006D6F7641
S214000FD0655F73746570730009436F6D6D616E6451
S214000FE020282025732029206E6F74207265636F79
S214000FF0676E697A65642E0D0A0011241FBECFEF56
S214001000CDBFDFE3DEBF00E00CBF13E2A0E0B0E23E
S214001010EAEFFFEA00E00BBF02C007900D92A83F80
S214001020B107D9F72FE2A8EFB3E201C01D92AD3F9A
S214001030B207E1F70E946A0B0C94FB570C94000071
S2140010400FB6F89460910804709109048091922478
S214001050909193240FBE08953BB78BBFFB018691FA
S2140010603BBF08953BB78BBFFB01879196913BBF73
S214001070089542E081C041E07FC08093C001882788
S2140010808093C1018093C20147E066D0CB010895EA
S2140010908093C40148E060C08091D00108953BB7BA
S2140010A048E10D9413003BB74AE10D9413003BB79B
S2140010B040E20D9413003BB78BBFCB0142E20D9488
S2140010C013003BB70B0143E20D9413003BB76BBF15
S2140010D0FA0119BEDC0140E04093CA0150E0879156
S2140010E097918D939D935A95D1F73BBF08953BB743
S2140010F08BBFCB0144E20D9413003BB78BBFCB01F3
S21400110045E20D9413003BB746E20D9413003BB73F
S2140011108BBFCB014AE20D9413003BB78BBFCB01CC
S2140011204CE20D9413003BB78BBFCB014DE20D9400
S214001130130048E311C049E30FC028ED20933400A4
S21400114021E02093CC0108952091CF0127FDFCCF0C
S21400115022272093CA0108954093CA0128ED31E062
S214001160209334003093CB016091C4017091C50187
S2140011708091C60199270895FC014093CA01849185
S214001180089540E060E08FEF0E942637EAE6FFE22F
S21400119001900020E9F73197AF014A565F426AE6B0
S2140011A07FE28FE30E9480198FE30E94E81286E9AF
S2140011B090E20E94255740E060E080E00E942637DB
S2140011C00895AF92BF92CF92DF92FF920F931F9334
S2140011D0CF93DF93CDB7DEB72897CDBFDEBF8C01A8
S2140011E0DC0155968C9155975296ED91FC9153974C
S2140011F0E80FF11D108253968C9153978F93529659
S2140012008C918F938CE990E29F938F930E94E35684
S21400121042E362E382E30E942637F801F5881982EA
S2140012201A821B820288F389E02D8081898381815E
S2140012308A8340E150E060E070E0CE0101960E94B3
S214001240EF53D8015296ED91FC91539782818C838F
S21400125083818D8384818E8385818F831886C09059
S214001260382BD12C40E150E060E070E0CE010496CF
S2140012700E94EF53F601EE0FFF1FEB58F54D60830B
S21400128071838091382BE82FF0E01F928F93EE0F3A
S214001290FF1FEB58F54D81818F9380818F9381EAF4
S2140012A090E29F938F930E94E3568091382BCDBF98
S2140012B0DEBF811108C02091752A3091762A2093CE
S2140012C03B2B30933C2B8F5F8093382B1F928F9352
S2140012D08FEB90E29F938F930E94E356E8E5FDE242
S2140012E028E53FE20F900F900F900F909FEF91939D
S2140012F0E217F307E1F7CF2CD12CF2E0CF1AD10892
S21400130027E0C216D1047CF10F2EF6E0FF2EF02D5A
S214001310D8015296ED91FC915397EF0DF11D808107
S214001320898381818A83A0906F2AB090702A40E1D9
S21400133050E060E070E0CE0101960E94EF53F501A8
S214001340E85AF24D608380916F2A9091702A019638
S21400135080936F2A9093702AF394F3948F2D90E0E5
S2140013608C159D05ACF28091382B982F9F71C1F497
S2140013708823B1F01092382B10926F2A1092702AA0
S21400138080913B2B90913C2B0E94314180935F2FA4
S214001390482F50E060E070E088E59DE20E94D60DA0
S2140013A040E060E080E00E9426372896CDBFDEBF92
S2140013B0DF91CF911F910F91FF90DF90CF90BF905C
S2140013C0AF900895CF92DF92EF92FF920F931F9304
S2140013D0CF93DF93CDB7DEB7C054D109CDBFDEBF04
S2140013E0CE0148968B8B9C8B80919124882369F044
S2140013F086E08093672A1092912484E994E09F9374
S2140014008F930E94F7560F900F900F2EFDE3DF2E5E
S214001410F02D0F2EFCE6EF2EF4E0FF2EF02D6BC025
S2140014200091672ACFB6F894015010E0D09EF001E4
S214001430D19EF00D1124E351F74D83AD811106C006
S214001440FF92EF920E94F7560F900F90D09EB00139
S214001450D19E700D11248B010351174DF80143AD39
S21400146050E06150774D8B899C890E943A56F8016E
S21400147080819181A281B38189839A83AB83BC8367
S21400148080899189898B9A8B82AD8D8B83AD8E8B6B
S21400149084819581A681B7818D839E83AF83B8872B
S2140014A080859185A285B38589879A87AB87BC8717
S2140014B084859585A685B7858D879E87AF87B88BEB
S2140014C084AD8F8BCFBE83ADEB89FC89E80FF11D11
S2140014D010828091672A81508093672A80919C248D
S2140014E0811105C0CE0101960E94036004C0CE01A2
S2140014F001960E94E1088091672A811191CFC05C15
S214001500DF4FCDBFDEBFDF91CF911F910F91FF90D0
S214001510EF90DF90CF900895CF93DF93CDB7DEB7EF
S214001520C054D109CDBFDEBF82E08093CA0180E4FB
S214001530E6E5F0E2DE01119601900D928A95E1F75C
S2140015409E012F5F3F4FBE016F5B7F4F40E050E034
S214001550F90181919191A191B1919F01ABBFFC01DD
S214001560879196914827842F82958427082E869502
S21400157086958025082E869580258770042E452F13
S214001580869507948795502D48270694879550256D
S21400159048272617370709F0DBCF1092CA01409379
S2140015A0FA235093FB23C05CDF4FCDBFDEBFDF9135
S2140015B0CF910895E0EAF0E08281816082838281A3
S2140015C08260828382818460828382818068828353
S2140015D07894089540E060E084E60E94263784E62A
S2140015E090E00E94333A40E064E680E00E942637AE
S2140015F084E690E00E94333A44E660E080E00E9491
S214001600263784E690E00E94333A0E941B3740E07B
S21400161060E084E60E94263784E690E00E94333A33
S21400162040E064E680E00E94263784E690E00E9470
S214001630333A44E660E080E00E94263784E690E095
S2140016400E94333A0E941B3740E060E084E60E9426
S214001650263784E690E00E94333A40E064E680E075
S2140016600E94263784E690E00E94333A44E660E023
S21400167080E00E94263784E690E00E94333A0E947B
S2140016801B370895F8940E940C3A0E948C0A0E9418
S2140016908B3A0E9433250E94FD360E9445260E9402
S2140016A0220E0E94DA0A0E940E280E947F390E94AB
S2140016B0E81C0E94031F0E9415240E949A2780E0BF
S2140016C091E00E94991D10929C240E94EA0A0E94B2
S2140016D0E61008950E94420B0E9406601092382B76
S2140016E010926F2A1092702A81E080935F2FCDEFC0
S2140016F0D4E080919C24811102C00E9400600E9468
S214001700E2098091252D81111DC00E942008E091DC
S214001710642FF091652F0081118122813381DC01D5
S214001720CB01801B910BA20BB30B893B9B40A10501
S214001730B10544F0DF93CF930E94F7560E94733CA6
S2140017400F900F9081E090E00E94333AD2CF88ED60
S21400175084BF81E0809379000895E0ECF1E087850E
S2140017608823ECF308950E94AD0B8091CF0181FF92
S2140017700BC086E38093CA01EBECF1E021E030E099
S21400178088ED90E084BF20830895CF93DF93D82F11
S214001790C92F0E94AD0BA0ECB1E0DC93CF7111967F
S2140017A0CC93119712961C92129786E01A968C93F9
S2140017B01A97EBECF1E021E030E088ED90E084BF92
S2140017C0208314968C91DF91CF9108951F93CF9329
S2140017D0DF93182FC92FD62F0E94B30BE0ECF1E051
S2140017E083E382871083CF71C1831282D48385E31B
S2140017F08287EBECF1E021E030E088ED90E084BFFA
S2140018002083DF91CF911F910895BF92CF92DF92F0
S214001810EF92FF920F931F93CF93DF93E091B52A39
S214001820F091B62AC281D381EC17FD0769F1C12C6D
S214001830D12C760188819981BC0180E090E00E94DD
S214001840654AA70196010E94BD4820E030E040E7C7
S21400185052E40E94BD499B01AC01C701B6010E943B
S214001860BE486B017C010A811B81BFB6F894CE018D
S2140018700E945753BFBEE8018091B52A9091B62AC0
S21400188080179107B9F604C08E01C12CD12C7601C1
S214001890F8010283138304831583E0E0FAE0C0A115
S2140018A0D1A182A593A5C817D907A8F400912A0A42
S2140018B010912B0AC701B6010E94364A6C0F7D1F95
S2140018C00617170740F440915B2A60915E2F8091BF
S2140018D0682A0E942637C701B6010E94364AC60FFC
S2140018E0D71FC134FDE9DF0738F080E49DE9809317
S2140018F0200A9093210A04C0C093200AD093210A9C
S214001900DF91CF911F910F91FF90EF90DF90CF90D6
S214001910BF9008959C0140E460E070E08FE30E9471
S214001920791220E030E045E05CE068EC70E080E0B2
S21400193090E00E942A3D08951F920F920FB60F92D4
S21400194011240BB60F922F933F934F935F936F9391
S2140019507F938F939F93AF93BF93EF93FF93E0E4B0
S214001960FAE082AD93AD8093682A80AD91AD809306
S2140019705E2F809178099091790980935B2A409137
S2140019808E2460916E2A8091642A0E942637FF91E9
S214001990EF91BF91AF919F918F917F916F915F91E2
S2140019A04F913F912F910F900BBE0F900FBE0F904F
S2140019B01F9018951F920F920FB60F9211240BB618
S2140019C00F922F933F934F935F936F937F938F93D3
S2140019D09F93AF93BF93EF93FF9340915B2A6091E1
S2140019E05E2F8091682A0E942637FF91EF91BF9163
S2140019F0AF919F918F917F916F915F914F913F91A2
S214001A002F910F900BBE0F900FBE0F901F90189542
S214001A108F929F92AF92BF92CF92DF92EF92FF92F9
S214001A200F931F93CF93CFB7F8940E9420086B01B3
S214001A307C0121E234E140E050E00E947A526131BC
S214001A402AE07207BCF021E234E1261B370B8091B6
S214001A500A0490910B04821B930B8C159D05D0F401
S214001A60809192249091932401968093922490934F
S214001A70932410C022273327261B370BC616D706FB
S214001A8048F4809192249091932401978093922415
S214001A9090939324E0E0F4E0818180FDFDCFA901DE
S214001AA0C20ED31EE0E0F4E0C086D186848595851C
S214001AB0820F931F84879587CFBFC901332324F4F1
S214001AC088279927821B930B8139910588F4121673
S214001AD0130634F4E0E5F0E084818F5F848308C069
S214001AE0433E5F4F28F4E0E5F0E084818150848334
S214001AF0CF911F910F91FF90EF90DF90CF90BF9006
S214001B00AF909F908F9008951F920F920FB60F92EE
S214001B1011240BB60F92CF92DF92EF92FF922F9383
S214001B203F934F935F936F937F938F939F93AF9360
S214001B30BF93EF93FF930E9420086B017C010E94E5
S214001B40FF27AC019C01ADECBCEC0E94AC52880FA8
S214001B50892F881F990B919560EA689F9001699F6D
S214001B60300D1124CA01821B930BBC0180E090E06B
S214001B7096014AE85CE00E942A3D0E94080DFF910B
S214001B80EF91BF91AF919F918F917F916F915F91F0
S214001B904F913F912F91FF90EF90DF90CF900F9055
S214001BA00BBE0F900FBE0F901F901895CF92DF922E
S214001BB0EF92FF926A017B010F9400000E94A40836
S214001BC0C701B601052E59E0660F771F881F991FBB
S214001BD05A95D1F7502D0E947D08E0ECF1E085E2A1
S214001BE08287EF93FF930F932F93EBECF1E008EDD2
S214001BF021E004BF20832F910F91FF91EF91128671
S214001C00FF90EF90DF90CF900895E091682FF091CD
S214001C10692F80839183E091682FF091692F01905E
S214001C20F081E02D68636183E091682FF091692F61
S214001C30A081B18115964C930190F081E02D81E052
S214001C4084830895E0E2F6E080E28283858B83E079
S214001C508093810687EB9AE28093682F9093692F92
S214001C604BE960E880EA94E00E94050E0895CF9361
S214001C70DF93493008F041C0293008F040C0E091B9
S214001C80682FF091692F978991112DC091E0978B5D
S214001C90108E880F8283442361F0A62FB72F80E032
S214001CA090E03D91EF01C80FD91F3B830196841742
S214001CB0C0F3438B248B158A168A8389882341F0C8
S214001CC082818E7F0190F081E02D868381E01AC0AC
S214001CD084898823B1F0828181600190F081E02DB3
S214001CE0868381E00FC082E495E09F938F930E94E5
S214001CF0F7560F900F9080E005C080E003C080E0AC
S214001D0001C081E0DF91CF91089520E00E94370E58
S214001D100895E091682FF091692FA081B181149603
S214001D208C91149782FF03C094E0908F02C093E0DA
S214001D30908F886014968C93178A0895E091682F88
S214001D40F091692F808F178A0895CF93DF93E091E3
S214001D50682FF091692F93892489A081B181149608
S214001D608C91149784FF07C083E013968C9385E0CC
S214001D70808F178A1CC08589891758F48589EF01DA
S214001D80C80FD11D8B8117968C9385898F5F858BA5
S214001D900EC08689821728F48281816016968C93FD
S214001DA006C083E013968C9381E00E949E0EDF911E
S214001DB0CF910895E091682FF091692F8689883039
S214001DC070F4A081B18117968C919689DF01A90FD6
S214001DD0B11D1B968C9386898F5F868B08C00190F9
S214001DE0F081E02D83E0838382E00E949E0EE091E6
S214001DF0682FF091692F94898689891730F40190AD
S214001E00F081E02D82E0838308950190F081E02D3B
S214001E1087E0838381E00E949E0E0895E091682FFC
S214001E20F091692F0190F081E02D8481982F9C70AD
S214001E3019F00E94890E089586FF03C00E94A50E21
S214001E40089588231CF40E94DA0E089586E00E9406
S214001E509E0E08951F920F920FB60F9211240BB686
S214001E600F922F933F934F935F936F937F938F932E
S214001E709F93AF93BF93EF93FF930E940E0FFF9134
S214001E80EF91BF91AF919F918F917F916F915F91ED
S214001E904F913F912F910F900BBE0F900FBE0F905A
S214001EA01F901895EF92FF920F931F93CF93DF9397
S214001EB0CDB7DEB7EDB6FEB68091AC2F9091AD2FC4
S214001EC001962DB73EB7281B390B2DBF3EBF0DB769
S214001ED01EB70F5F1F4F4091AC2F5091AD2F4F5F35
S214001EE05F4F6FEA7FE2C8010E943A566091AC2FBE
S214001EF07091AD2FC8010E948B468FB7F894109250
S214001F005B2F8FBFEDBEFEBEDF91CF911F910F916D
S214001F10FF90EF900895282F30E099E3899FF00115
S214001F201124E153F44D148215821682178210860E
S214001F301186128613861486158616AA17AA10AE60
S214001F40F901EE0FFF1FEC5DFF4D0190F081E02DD3
S214001F5084818061848308952F923F924F925F928E
S214001F606F927F928F929F92AF92BF92CF92DF92A4
S214001F70EF92FF920F931F93CF93DF93CDB7DEB709
S214001F802D97CDBFDEBFFE0131968CE0DF011D929E
S214001F908A95E9F70F2EFDEDEF2EFBE2FF2EF02DD2
S214001FA04F0122242A94C12CD12C0F2EF9E36F2E38
S214001FB0F02D0F2EFDE37F2EF02D0F2EFEEDAF2E13
S214001FC0F5E0BF2EF02D26016C9CF0016D9CF00D07
S214001FD01124E153F44D80AD81FFC7C03C2C822D07
S214001FE022200CF4D0C090E06C9CD0016D9CB00D0B
S214001FF01124AD52B44D2D913C911197E82FEE0F60
S214002000FF0B41E050E04C0F5D1FE40FF51F4081D1
S21400201051814217530709F491E0815062F7649C9E
S214002020F001659CF00D1124E153F44D24813581B7
S214002030D4012D933C93992321F0832D0E948B0F7E
S21400204094C08091672A863028F0B1E0B09391243E
S2140020501092672AEFB7ED87F894649CF001659CB0
S214002060F00D1124E153F44D86A9811106C0BF92EC
S214002070AF920E94F7560F900F90649C8001659C6B
S214002080100D11240153144DD801D6964C91809111
S214002090672A789EC001112450E0B7018150974D01
S2140020A00E943A56E091672AD801D6968C91D69728
S2140020B07E9EF0011124E351F74DE80FF11D128AC0
S2140020C02091672A8D919D910D90BC91A02D729EB6
S2140020D0F0011124E351F74D80839183A283B383EB
S2140020E0E091672A7E9EF0011124E351F74D32AE4F
S2140020F0E091672AD80116968D919C9117977E9E3F
S214002100F0011124E351F74D808B918BE091672A03
S214002110D6968C91D6977E9EF0011124E351F74D0A
S21400212083AFE091672AD8968C91829581707E9EC7
S214002130F0011124E351F74D84AFE091672A7E9EAB
S214002140F0011124E351F74D83AD893220F082ED82
S21400215090E20E942557BD85BFBF8091672A8F5F9A
S2140021608093672A832D0E948B0FEFEFCE1ADE0A2C
S214002170F9E3EF0EF11C42E0840E911C239455E027
S214002180251221CF0DC06C9CF0016D9CF00D112422
S214002190E153F44D84819581D4018D939C9351CF66
S2140021A02D96CDBFDEBFDF91CF911F910F91FF908F
S2140021B0EF90DF90CF90BF90AF909F908F907F90E2
S2140021C06F905F904F903F902F900895CF9394E438
S2140021D09093420684E080936206909382068093F2
S2140021E0A2068FB7F8949FEF90935A2F8FBFE4E222
S2140021F0F0E220E330E268E253E040E792E0A081BC
S214002200B18113966C93A081B18115965C93A081E1
S214002210B18116964C93A081B18117969C93A081AC
S214002220B18114968C911497806114968C93A19129
S214002230B19114968C911497886014968C93E2173B
S214002240F307E9F61092AA2F1092AB2FC0E08C2F5E
S2140022500E948B0FCF5FC630D1F71092602F10927E
S214002260612F1092622F1092632F1092672A10929D
S214002270912410925B2F1092612B20E030E04CEA04
S2140022805FE06EE370E080E090E00E94DB3D8FB799
S214002290F89410925A2F8FBFCF9108953F924F9285
S2140022A05F926F927F928F929F92AF92BF92CF92E1
S2140022B0DF92EF92FF920F931F93CF93DF93182F27
S2140022C04B01542E422E88E2841740F485EB95E0AD
S2140022D09F938F930E94F7560F900F90C091FA230A
S2140022E0D091FB23E12EF12C10FD0DC081E090E093
S2140022F0AC019701082E02C0359527950A94E2F79F
S21400230020FF40C002C040E050E089E3849FF00117
S214002310859FF00D1124E153F44D80AD807CC827D5
S2140023208C2F82958C27082E869586958025082EDC
S2140023308695802587700C2ECD2F869507948795D9
S214002340D02DC82706948795D025C82780859185E7
S214002350C8278C2F82958C27082E869586958025F3
S214002360082E8695802587700C2ECD2F869507948F
S2140023708795D02DC82706948795D025C827511055
S21400238007C091C001968630910509F0B1CFF7CF0E
S214002390F4012FEF250D30E02F5F3F4F280D391D3C
S2140023A08191C8278C2F82958C27082E8695869536
S2140023B08025082E8695802587700C2ECD2F869535
S2140023C007948795D02DC82706948795D025C827CB
S2140023D0E217F30729F767C0C701002E02C09595DC
S2140023E087950A94E2F780FF23C0309EF001319E65
S2140023F0F00D1124E153F44D80AD806280AF56AAF3
S214002400C483D583128613868091FA239091FB238A
S21400241086839783A301B401C6010E943A56F5014C
S2140024209181F801EA5FFF4D8081892BF501818358
S2140024300F5F1F4FF9E3CF0ED11C0630110561F672
S214002440E4E2F0E280E090E049E39701082E02C063
S214002450359527950A94E2F720FF1FC0489FD001C4
S214002460499FB00D1124A153B44D1D921D921D928B
S2140024701C921397442049F0A081B18113962C91A9
S2140024801397236013962C9308C0A081B1811396EE
S2140024902C911397226013962C93019632968630D1
S2140024A0910599F614C00F2EFDEDCF2EFBE2DF2E20
S2140024B0F02D00E010E00F2EF9E33F2EF02D652CF6
S2140024C0712C0F2EA12CFBE0BF2EF02D85CFDF91B7
S2140024D0CF911F910F91FF90EF90DF90CF90BF901C
S2140024E0AF909F908F907F906F905F904F903F90AF
S2140024F00895BF92CF92DF92EF92FF920F931F93B1
S214002500CF93DF93C82E7B01D42E890180915A2F5A
S214002510811153C08FE3841710F480ECD80E0E940C
S214002520AC0FBFB6F894C4E2D0E2E0E0F0E06C2D69
S21400253070E059E341E881E090E0DB010E2E02C036
S214002540B595A7950A94E2F7A0FF29C0A881B9819E
S21400255014962C9114972F7E14962C935E9FD00180
S2140025605F9FB00D1124A153B44DD8964C93D897C5
S214002570D8962C91D8972064D8962C93D8971896EE
S2140025800D931C931997A0915A2F9C010E2E02C0F2
S214002590220F331F0A94E2F72A2B20935A2F3196E4
S2140025A02296E630F10549F6BFBE21E04D2DB70173
S2140025B08C2D0E944E1181E001C080E0DF91CF910A
S2140025C01F910F91FF90EF90DF90CF90BF900895EE
S2140025D0CF93DF93682F70E0B9E3C1E0D0E020E04E
S2140025E030E0A0E0AB01022E02C0559547950A9454
S2140025F0E2F740FF12C0B29FF001B39FF00D112426
S214002600E153F44D80AD85FF08C0AE01022E02C036
S214002610440F551F0A94E2F7A42B2F5F3F4F263036
S214002620310501F78FE193E00197F1F700C0000054
S214002630A111D5CFDF91CF9108950F931F93CF931C
S214002640DF93182F0FB7F89480915B2F811135C058
S21400265089E3189FB0011124EB01C153D44D4EA954
S21400266050E06352744D8FEA9FE20E943A56EEA9FC
S214002670F0E0E155F04D10822EA930E02093AC2F0B
S2140026803093AD2F88819981AA81BB818093602F7A
S2140026909093612FA093622FB093632F8E819F81BA
S2140026A080935E2A90935F2A10939B248FA9809331
S2140026B0E52481E080935B2F01C080E00FBF882374
S2140026C0A1F020E030E042E55FE065E070E080E009
S2140026D090E00E942A3DDFB7F894C0E08C2F0E945D
S2140026E08B0FCF5FC630D1F7DFBFDF91CF911F9141
S2140026F00F910895EF92FF920F931F93CF93DF935E
S2140027002FB7F8949091612B91110CC0C091200ABC
S214002710D091210A8F3F21F091E09093612B03C066
S21400272090E001C090E02FBF992309F46DC08B01A3
S214002730682F70E06E5F7F4F072E000C880B990B9A
S2140027400E94674A20E030E04AEF50E40E94C64C00
S2140027500E94364A6C177D0728F0CF5BD246C61B10
S214002760D70B02C0C61BD70BFFB6F89486E090E0E6
S2140027700E94C252AC01FFBEE091B52AF091B62A83
S2140027800480F581E02D80819181C817D90740F437
S2140027900480F581E02D20813181C217D307C0F374
S2140027A082819381DC0114964D935C931597828108
S2140027B09381DA0112968D939C9313971496ED935A
S2140027C0FC93159742835383CD93DC93EFB6F8942E
S2140027D0C0E0D0E00F2EF9E3FF2EF02DFC9EF001B6
S2140027E0FD9EF00D1124E153F44D868197818017EC
S2140027F0910719F48C2F0E948B0F2196C630D105B5
S21400280069F71092612BEFBEDF91CF911F910F9168
S214002810FF90EF900895EF92FF920F931F93CF9340
S214002820DF93EB016FB7F8949091362B91112FC080
S21400283090915A2F911127C08F3F39F1C0935C2F8A
S214002840D0935D2F853018F494E1981B892F90E083
S2140028500596092E000CAA0BBB0B79018A01E81A13
S214002860F90A0A0B1B0BE092BB2BF092BC2B0093D1
S214002870BD2B1093BE2B81E08093362B8FEF809379
S2140028805A2F81E005C080E003C080E001C080E0F0
S2140028906FBF882309F43EC0EFB6F89400E010E05E
S2140028A00F2EF9E3FF2EF02DF09EF001F19EF00DB5
S2140028B01124E153F44D868197818C179D0719F4F6
S2140028C0802F0E948B0F0F5F1F4F0630110561F798
S2140028D0EFBE8091BB2B9091BC2BA091BD2BB091ED
S2140028E0BE2B8093BB2B9093BC2BA093BD2BB09399
S2140028F0BE2B0E943E2D8FB7F89410925A2F8FBF92
S21400290020E030E04BEC55E36AE070E080E090E0D9
S2140029100E942A3DDF91CF911F910F91FF90EF907B
S2140029200895CF92DF92EF92FF920F931F93CF936B
S214002930DF93182FC82FD0E0FE01EE0FFF1FEC5DCF
S214002940FF4D0190F081E02D00810E9420086B0170
S2140029507C0189E38C9FF0018D9FF00D1124E153DB
S214002960F44D80819181A281B381A7019601281B35
S214002970390B4A0B5B0B253131054105510518F023
S214002980812F0E948B0F89E38C9FF0018D9FF00DA5
S2140029901124E153F44DC082D182E282F382028494
S2140029A0F385E02DE830F10508F0B9C08827E2503D
S2140029B0FF4F8F4F0C949C52802F90E029E32C9F62
S2140029C0F0012D9FF00D1124E153F44D868397837B
S2140029D0D0C089E38C9FF0018D9FF00D1124E15348
S2140029E0F44D86819781902B86839783C2C0802F73
S2140029F090E029E32C9FF0012D9FF00D1124E15368
S214002A00F44D84839583B5C089E38C9FF0018D9F38
S214002A10F00D1124E153F44D84819581902B84832D
S214002A209583A7C089E38C9FF0018D9FF00D11243C
S214002A30E153F44D80AD902F907C892B80AF20AD74
S214002A4086819781207C8227282F22952827022E90
S214002A50269526952025022E269520252770082EB9
S214002A60892F269507942795902D822706942795DB
S214002A7090258227848795870F7306AB86A98932AF
S214002A8008F477C089E38C9FF0018D9FF00D112428
S214002A90E153F44D81E086AB6CC0802F90E029E3D3
S214002AA02C9FF0012D9FF00D1124E153F44D8087EB
S214002AB091875FC089E38C9FF0018D9FF00D1124F4
S214002AC0E153F44D80859185902B808791872085F2
S214002AD03185848595858227282F22952827022EE2
S214002AE0269526952025022E269520252770082E29
S214002AF0892F269507942795902D8227069427954B
S214002B00902582278487958734C089E38C9FF001BF
S214002B108D9FF00D1124E153F44D07AB2AC089E3D5
S214002B208C9FF0018D9FF00D1124E153F44DA2858A
S214002B30B3851897AE0FBF1F1E960C938485958598
S214002B408027082F02950827002E06950695002553
S214002B50002E069500250770082E892F06950794E7
S214002B600795902D802706940795902580278487C3
S214002B70958789E38C9FF0018D9FF00D1124E1531A
S214002B80F44D828593850196828793878285938507
S214002B9026A930E0285F3F4F8217930708F4C9C084
S214002BA089E38C9FF0018D9FF00D1124E153F44DC5
S214002BB04485558524813581A485B585E680F780D2
S214002BC06091FA237091FB2380AD86FB882780F9FD
S214002BD091E0892761F199E39C9FF0019D9FF00D9C
S214002BE01124E153F44D0084F185E02DEF2B79F0AC
S214002BF09C9FF0019D9FF00D1124E153F44D00843D
S214002C00F185E02DE617F70721F400E003C000E0A9
S214002C1001C001E099E39C9FF0019D9FF00D1124F7
S214002C20E153F44D97A9987F983F21F401C000E046
S214002C3090E001C091E04217530709F069C0AB2B42
S214002C4009F466C0E616F70609F462C0011160C012
S214002C5091115EC0882309F45FC089E38C9FF00160
S214002C608D9FF00D1124E153F44D87A9877087AB33
S214002C7080AD882394F5812F0E941D135AC089E3E6
S214002C808C9FF0018D9FF00D1124E153F44D86A921
S214002C90882319F0813079F04CC089E38C9FF001CD
S214002CA08D9FF00D1124E153F44D6681778187A93D
S214002CB00E947A133EC089E38C9FF0018D9FF00D31
S214002CC01124E153F44D2081318142815381668184
S214002CD0778187A90E940B142CC09FB7F89489E3CC
S214002CE08C9FF0018D9FF00D1124E153F44D80ADC3
S214002CF0826080AF80AD816080AFCC0FDD1FCC5D81
S214002D00DF4DE881F98184818F7E84839FBF11C067
S214002D10812F0E948B0F0DC089E38C9FF0018D9F41
S214002D20F00D1124E153F44D80AD88230CF4A7CFA9
S214002D30D4CFDF91CF911F910F91FF90EF90DF904E
S214002D40CF9008951F93CF93DF93182FC82FD0E00E
S214002D5089E3189FF0011124E153F44D0284F385B2
S214002D60E02DE830F10508F097C08827EA5FFE4FAF
S214002D708F4F0C949C5289E38C9FF0018D9FF00D31
S214002D801124E153F44D868197818093AE2F94C031
S214002D9089E38C9FF0018D9FF00D1124E153F44DD3
S214002DA0868197819093AE2F87C089E38C9FF00130
S214002DB08D9FF00D1124E153F44D8481958180930D
S214002DC0AE2F7AC089E38C9FF0018D9FF00D112401
S214002DD0E153F44D848195819093AE2F6DC089E3C5
S214002DE08C9FF0018D9FF00D1124E153F44D86A9C0
S214002DF08F738093AE2F80AD9091AE2F8078892B05
S214002E008093AE2F80AD9091AE2F8074892B8093E7
S214002E10AE2F52C089E38C9FF0018D9FF00D1124D8
S214002E20E153F44D808591858093AE2F45C089E3AC
S214002E308C9FF0018D9FF00D1124E153F44D808599
S214002E4091859093AE2F38C089E38C9FF0018D9FBB
S214002E50F00D1124E153F44D80AD86FD05C0812FA1
S214002E60886F8093AE2F28C00E94200829E32C9FED
S214002E70F0012D9FF00D1124E153F44D208531858E
S214002E80621B730B6F3F710518F46093AE2F14C06E
S214002E908FEF8093AE2F10C089E38C9FF0018D9F3B
S214002EA0F00D1124E153F44D828593850897E80FC1
S214002EB0F91F86858093AE2FFE01EE0FFF1FEC5D97
S214002EC0FF4D0190F081E02D8091AE2F808389E345
S214002ED08C9FF0018D9FF00D1124E153F44D228557
S214002EE033852F5F3F4F228733878285938526A9B8
S214002EF030E0285F3F4F8217930760F0812F0E94D3
S214002F008B0FCC0FDD1FCC5DDF4DE881F98183810F
S214002F108C7F8383DF91CF911F9108955FB7F894DC
S214002F20E0E0FBE04181282F30E0D901AA5FBF4DE9
S214002F309C9190959423918399E3929FF001939F9F
S214002F40F00D1124E153F44D10AE16AA1286138626
S214002F501086118616821782220F331FF901EC5D48
S214002F60FF4DA081B18111969C91119790641196A6
S214002F709C930190F081E02D948190619483409120
S214002F805A2F21E030E0B90102C0660F771F8A95FC
S214002F90E2F7CB018095842380935A2F5FBF089574
S214002FA020E030E090E069E3AC01022E02C05595C7
S214002FB047950A94E2F740FF0AC0629FF001639FBC
S214002FC0F00D1124E153F44D40AD45FD07C02F5FD1
S214002FD03F4F2630310541F781E0089580E008959F
S214002FE0BF92CF92DF92EF92FF920F931F93CF93F1
S214002FF0DF93C82E7B01D42E890180915A2F882317
S21400300031F08CEE90E20E942557B12C6BC08C2DCF
S2140030100E94D017B82E81112AC083E995E09F93AD
S2140030208F930E94F7560F900F90DD20B9F0E701BE
S214003030DA948D2D90E00196E80EF91E08E011E274
S21400304099911F929F931F930F930E94E3560F90A0
S2140030500F900F900F90CE15DF0591F787E595E05E
S2140030609F938F930E94F7560F900F903BC0C4E239
S214003070D0E2E0E0F0E04C2D50E079E361E09A0128
S2140030800E2E02C0359527950A94E2F720FF1DC044
S214003090A881B98114968C9114978F7E14968C9380
S2140030A07E9FD0017F9FB00D1124A153B44DD896BA
S2140030B06C93D897D8969C91D8979068D8969C93FE
S2140030C0D89718960D931C93199731962296E6304A
S2140030D0F105A9F620E04D2DB7018C2D0E944E116A
S2140030E0BB24B3948B2DDF91CF911F910F91FF904E
S2140030F0EF90DF90CF90BF900895CF92DF92EF923F
S214003100FF920F931F93CF93DF93C82F8B01F42E5C
S21400311080915A2F882331F08CEE90E20E9425573A
S214003120E12C64C08C2F0E94D017E82E81112CC091
S21400313083E995E09F938F930E94F7560F900F9028
S214003140FF20C9F0E801FA94CF2CD12C8FEFC81AD3
S214003150D80AC00ED11E08E011E299911F929F93E3
S2140031601F930F930E94E3560F900F900F900F90AF
S214003170CC15DD0591F787E595E09F938F930E9428
S214003180F7560F900F9032C0A4E2B0E220E030E095
S2140031904C2F50E0D9E381E0BA01022E02C07595AB
S2140031A067950A94E2F760FF13C0ED91FC911197C2
S2140031B094819F7E9483D29FF001D39FF00D1124BB
S2140031C0E153F44D80AF90AD906890AF10861186B5
S2140031D02F5F3F4F129626303105F1F620E04F2D37
S2140031E0B8018C2F0E944E11EE24E3948E2DDF91B1
S2140031F0CF911F910F91FF90EF90DF90CF900895A1
S214003200BF92CF92DF92EF92FF920F931F93CF93CE
S214003210DF93C82E7B01D42E890180915A2F8823F4
S21400322031F08CEE90E20E942557B12C5EC08C2DBA
S2140032300E94D017B82E81112AC083E995E09F938B
S2140032408F930E94F7560F900F90DD20B9F0E7019C
S214003250DA948D2D90E00196E80EF91E08E011E252
S21400326099911F929F931F930F930E94E3560F907E
S2140032700F900F900F90CE15DF0591F787E595E03C
S2140032809F938F930E94F7560F900F902EC0A4E244
S214003290B0E2E0E0F0E04C2D50E069E381E09A0116
S2140032A00E2E02C0359527950A94E2F720FF10C02F
S2140032B0CD91DC9111979C819F7E9C836E9FE0014F
S2140032C06F9FD00D1124C153D44D88AF088719873E
S2140032D031961296E630F10511F720E04D2DB70134
S2140032E08C2D0E944E11BB24B3948B2DDF91CF9171
S2140032F01F910F91FF90EF90DF90CF90BF900895B1
S214003300CF92DF92EF92FF920F931F93CF93DF93AC
S214003310C82F8B01F42E80915A2F882331F08CEE23
S21400332090E20E942557E12C67C08C2F0E94D01790
S214003330E82E81112CC083E995E09F938F930E941D
S214003340F7560F900F90FF20C9F0E801FA94CF2CA3
S214003350D12C8FEFC81AD80AC00ED11E08E011E291
S21400336099911F929F931F930F930E94E3560F907D
S2140033700F900F900F90CC15DD0591F787E595E03F
S2140033809F938F930E94F7560F900F9035C0E4E2FC
S214003390F0E220E030E04C2F50E0D9E381E0BA01C3
S2140033A0022E02C0759567950A94E2F760FF16C074
S2140033B0A081B18114969C9114979F7E14969C933D
S2140033C0D29FD001D39FB00D1124A153B44DD896EF
S2140033D08C93D89718961D921C9219972F5F3F4F83
S2140033E0329626303105D9F620E04F2DB8018C2FC5
S2140033F00E944E11EE24E3948E2DDF91CF911F9103
S2140034000F91FF90EF90DF90CF9008951F920F924C
S2140034100FB60F9211240BB60F922F933F934F9334
S2140034205F936F937F938F939F93AF93BF93EF9327
S214003430FF9380E00E949114FF91EF91BF91AF91AE
S2140034409F918F917F916F915F914F913F912F91B7
S2140034500F900BBE0F900FBE0F901F9018951F92E7
S2140034600F920FB60F9211240BB60F922F933F9325
S2140034704F935F936F937F938F939F93AF93BF9377
S214003480EF93FF9380E00E948E17FF91EF91BF911C
S214003490AF919F918F917F916F915F914F913F91E7
S2140034A02F910F900BBE0F900FBE0F901F90189588
S2140034B01F920F920FB60F9211240BB60F922F93F6
S2140034C03F934F935F936F937F938F939F93AF93A7
S2140034D0BF93EF93FF9380E00E94A216FF91EF91B7
S2140034E0BF91AF919F918F917F916F915F914F9117
S2140034F03F912F910F900BBE0F900FBE0F901F9015
S21400350018951F920F920FB60F9211240BB60F92BA
S2140035102F933F934F935F936F937F938F939F93D6
S214003520AF93BF93EF93FF9381E00E949114FF91B6
S214003530EF91BF91AF919F918F917F916F915F9126
S2140035404F913F912F910F900BBE0F900FBE0F9093
S2140035501F9018951F920F920FB60F9211240BB65C
S2140035600F922F933F934F935F936F937F938F9317
S2140035709F93AF93BF93EF93FF9381E00E948E17C4
S214003580FF91EF91BF91AF919F918F917F916F9136
S2140035905F914F913F912F910F900BBE0F900FBEF2
S2140035A00F901F9018951F920F920FB60F9211242E
S2140035B00BB60F922F933F934F935F936F937F9328
S2140035C08F939F93AF93BF93EF93FF9381E00E94F7
S2140035D0A216FF91EF91BF91AF919F918F917F912E
S2140035E06F915F914F913F912F910F900BBE0F906F
S2140035F00FBE0F901F9018951F920F920FB60F9246
S21400360011240BB60F922F933F934F935F936F93B4
S2140036107F938F939F93AF93BF93EF93FF9382E035
S2140036200E949114FF91EF91BF91AF919F918F915E
S2140036307F916F915F914F913F912F910F900BBEAD
S2140036400F900FBE0F901F9018951F920F920FB6F7
S2140036500F9211240BB60F922F933F934F935F93C5
S2140036606F937F938F939F93AF93BF93EF93FF9345
S21400367082E00E948E17FF91EF91BF91AF919F91CC
S2140036808F917F916F915F914F913F912F910F9006
S2140036900BBE0F900FBE0F901F9018951F920F92A3
S2140036A00FB60F9211240BB60F922F933F934F93A2
S2140036B05F936F937F938F939F93AF93BF93EF9395
S2140036C0FF9382E00E94A216FF91EF91BF91AF9107
S2140036D09F918F917F916F915F914F913F912F9125
S2140036E00F900BBE0F900FBE0F901F9018951F9255
S2140036F00F920FB60F9211240BB60F922F933F9393
S2140037004F935F936F937F938F939F93AF93BF93E4
S214003710EF93FF9383E00E949114FF91EF91BF9186
S214003720AF919F918F917F916F915F914F913F9154
S2140037302F910F900BBE0F900FBE0F901F901895F5
S2140037401F920F920FB60F9211240BB60F922F9363
S2140037503F934F935F936F937F938F939F93AF9314
S214003760BF93EF93FF9383E00E948E17FF91EF9134
S214003770BF91AF919F918F917F916F915F914F9184
S2140037803F912F910F900BBE0F900FBE0F901F9082
S21400379018951F920F920FB60F9211240BB60F9228
S2140037A02F933F934F935F936F937F938F939F9344
S2140037B0AF93BF93EF93FF9383E00E94A216FF910F
S2140037C0EF91BF91AF919F918F917F916F915F9194
S2140037D04F913F912F910F900BBE0F900FBE0F9001
S2140037E01F9018951F920F920FB60F9211240BB6CA
S2140037F00F922F933F934F935F936F937F938F9385
S2140038009F93AF93BF93EF93FF9384E00E9491142E
S214003810FF91EF91BF91AF919F918F917F916F91A3
S2140038205F914F913F912F910F900BBE0F900FBE5F
S2140038300F901F9018951F920F920FB60F9211249B
S2140038400BB60F922F933F934F935F936F937F9395
S2140038508F939F93AF93BF93EF93FF9384E00E9461
S2140038608E17FF91EF91BF91AF919F918F917F91AE
S2140038706F915F914F913F912F910F900BBE0F90DC
S2140038800FBE0F901F9018951F920F920FB60F92B3
S21400389011240BB60F922F933F934F935F936F9322
S2140038A07F938F939F93AF93BF93EF93FF9384E0A1
S2140038B00E94A216FF91EF91BF91AF919F918F91B9
S2140038C07F916F915F914F913F912F910F900BBE1B
S2140038D00F900FBE0F901F9018951F920F920FB665
S2140038E00F9211240BB60F922F933F934F935F9333
S2140038F06F937F938F939F93AF93BF93EF93FF93B3
S21400390085E00E949114FF91EF91BF91AF919F9136
S2140039108F917F916F915F914F913F912F910F9073
S2140039200BBE0F900FBE0F901F9018951F920F9210
S2140039300FB60F9211240BB60F922F933F934F930F
S2140039405F936F937F938F939F93AF93BF93EF9302
S214003950FF9385E00E948E17FF91EF91BF91AF9184
S2140039609F918F917F916F915F914F913F912F9192
S2140039700F900BBE0F900FBE0F901F9018951F92C2
S2140039800F920FB60F9211240BB60F922F933F9300
S2140039904F935F936F937F938F939F93AF93BF9352
S2140039A0EF93FF9385E00E94A216FF91EF91BF91DF
S2140039B0AF919F918F917F916F915F914F913F91C2
S2140039C02F910F900BBE0F900FBE0F901F90189563
S2140039D0CF93DF93A0EAB6E093EF11969C931197EE
S2140039E0E0E0FBE082E0848380818360808383ED77
S2140039F087A386A389E681A783A785A787A780A72D
S214003A0082A79183C0E4D6E098E8998320E636E062
S214003A1088E0F901818340E856E0FA019183119627
S214003A208C9311979E83F9018683FA0196831696E6
S214003A308C93169780E48B8B8F8BF901838BFA011E
S214003A40838B878B53968C93DF91CF910895CF937A
S214003A50DF9390E0DC01AA0FBB1FAD014C5D5F4D0C
S214003A60EA01E881F9812481FC01E450FC4D2083C1
S214003A70E0E0FBE03181EC01C25EDF4D288120955D
S214003A80232321832881E0EAF6E0218334812881FC
S214003A90232B2483EA01E881F9811482A45FBF4DB9
S214003AA0CD91DC911197FC01E85EFF4D8081898302
S214003AB00D90BC91A02D14969C91149780818095B2
S214003AC0892314968C93DF91CF91089590E09C0102
S214003AD0220F331FF901E45FFF4D0190F081E02DC6
S214003AE05481DC01A85EBF4D4C91452B4483F901FF
S214003AF0EC5DFF4D0190F081E02DDC01A450BC4D43
S214003B002C912483A0EAB6E014962C911497FC011D
S214003B10E25EFF4D80818095822314968C93A0E010
S214003B20BBE011969C9111978081892B11968C93FE
S214003B3008958F929F92AF92BF92DF92EF92FF927C
S214003B400F931F93CF93DF9300D000D0CDB7DEB78F
S214003B507C018130914008F047C18091AA2F909156
S214003B60AB2F8E159F0509F43FC1F982EA828F2D8F
S214003B7080618B83EC828F2D80668D83EE820E941F
S214003B8020084B015C01D12C08E616E034C00E94E8
S214003B902008DC01CB0188199909AA09BB098536DA
S214003BA09105A105B10568F01F930F930E94F75683
S214003BB08AE090E00E94333A0F900F90DD24D39471
S214003BC01AC00E942008DC01CB0188199909AA09AD
S214003BD0BB09893E9340A105B10568F083E496E0F1
S214003BE09F938F930E94F7568FE091E20E9425578D
S214003BF00F900F90F9C0E091682FF091692F878998
S214003C008111C5CF46E0BE016F5F7F4F8CE20E94F8
S214003C10850E882309F446C048C00E942008DC01AF
S214003C20CB0188199909AA09BB0985369105A10512
S214003C30B10568F01F930F930E94F7568AE090E054
S214003C400E94333A0F900F90DD24D3941AC00E943E
S214003C502008DC01CB0188199909AA09BB09893E0D
S214003C609340A105B10568F083E496E09F938F9397
S214003C700E94F75684E191E20E9425570F900F901C
S214003C80B3C0E091682FF091692F87898111C5CF65
S214003C9046E0BE016F5F7F4F8CE20E94850E882350
S214003CA081F303C008E616E0ECCF08E616E034C061
S214003CB00E942008DC01CB0188199909AA09BB09D2
S214003CC085369105A105B10568F01F930F930E94F4
S214003CD0F7568AE090E00E94333A0F900F90DD246A
S214003CE0D3941AC00E942008DC01CB0188199909D8
S214003CF0AA09BB09893E9340A105B10568F083E493
S214003D0096E09F938F930E94F75689E191E20E9476
S214003D1025570F900F9068C0E091682FF091692F9B
S214003D2087898111C5CF46E0BE016F5F7F4F8EE267
S214003D300E94850E882309F446C048C00E942008C9
S214003D40DC01CB0188199909AA09BB0985369105BA
S214003D50A105B10568F01F930F930E94F7568AE0FD
S214003D6090E00E94333A0F900F90DD24D3941AC04F
S214003D700E942008DC01CB0188199909AA09BB0911
S214003D80893E9340A105B10568F083E496E09F93D1
S214003D908F930E94F7568EE191E20E9425570F906E
S214003DA00F9022C0E091682FF091692F87898111CA
S214003DB0C5CF46E0BE016F5F7F4F8EE20E94850E44
S214003DC0882381F303C008E616E0ECCFDD2041F03F
S214003DD08EE096E09F938F930E94F7560F900F9079
S214003DE0E092AA2FF092AB2F2696CDBFDEBFDF91D2
S214003DF0CF911F910F91FF90EF90DF90BF90AF9003
S214003E009F908F900895E0E2F6E08CEF828387E043
S214003E10858B868B878B848B828B838BE0E4F2E0AA
S214003E2090E2928390E19183848383E180A384E08F
S214003E3081A384B5848785B5858781E080838AE001
S214003E4090E00E94333AEEEAFBE28FEF9FE7808332
S214003E5091838283938384839583868397838087E5
S214003E60918782879387E2EEFAE2108211821282AD
S214003E701382148215821682178210861186128685
S214003E80138620E030E04CE850E268EE73E080E015
S214003E9090E00E942A3D20E030E044EC50E263E1EE
S214003EA074E380E090E00E94DB3D0895EF92FF927D
S214003EB00F931F93CF93DF93EC01613019F4888141
S214003EC0998153C0623059F5288139818A819B8156
S214003ED0820F931F99230CF401969595879545C0FC
S214003EE092E0E90EF11C8F5F8617F1F0982F87019C
S214003EF0E92FF0E0EE0FFF1FEC0FFD1F4081518110
S214003F00D7012D913C91421753072CF4D8014D93BD
S214003F105C93208331839F5F9613EACFE1CF6623BD
S214003F2029F07C0180E0DFCF60FD15C06695E62FA6
S214003F30F0E0E150F048EE0FFF1FEC0FFD1F208170
S214003F40318182819381820F931F99230CF401960D
S214003F50959587950AC06695262F30E0220F331F69
S214003F60FE01E20FF31F80819181DF91CF911F91B7
S214003F700F91FF90EF9008952F923F924F925F928D
S214003F806F927F928F929F92AF92BF92CF92DF9264
S214003F90EF92FF920F931F93CF93DF931F92CDB7AD
S214003FA0DEB78983692E762E4DB65EB6862F90E0F4
S214003FB06C01CC0CDD1C8C0D9D1D880F991F880F85
S214003FC0991F2DB73EB7281B390B2DBF3EBF0DB727
S214003FD01EB70F5F1F4F180163E371E2A8010F2E93
S214003FE0F9E3EF2EF1E2FF2EF02DAA24AA94A70CF7
S214003FF0B12CAA0CBB1CE0E4F2E032E0A30EB11C2C
S2140040008824839481A1877081A381A1DB019D917F
S214004010BD01892B81A37720A9F09501240F351FB8
S214004020DA019FB6F89480A1806880A383A18823D4
S214004030E9F3808991898D939D9383A29FBEA217F1
S214004040B30779F74C0D5D1D6E157F05D9F60C5F2D
S2140040501F4F0F2EF2EE8F2EFAE29F2EF02DE980E4
S214004060F62CA12CB12C0F2EFEEF6F2EF02D670C28
S214004070B2E0B71568F4662DC8010E94561FF40119
S21400408020813181821B930BD7018D939C931FC097
S214004090B2E07B120EC061E0C80102970E94561F74
S2140040A0F40120813181821B930BD7018D939C9361
S2140040B00EC0CA9CF001CB9CF00DDA9CF00D1124CA
S2140040C0E20DF31D80819181F70180839183FFEFDC
S2140040D0AF1ABF0A0C0D1D1D22E0820E911C32E0A5
S2140040E0E30EF11C86E0A816B10411F64DBE5EBEC6
S2140040F00F90DF91CF911F910F91FF90EF90DF907F
S214004100CF90BF90AF909F908F907F906F905F9072
S2140041104F903F902F900895EF92FF920F931F932A
S214004120CF93DF936DE082EE9AE20E94BC1F83E29B
S21400413091E29F938F930E94E356C2EEDAE20F2E2F
S214004140FEEEEF2EFAE2FF2EF02D0F900F900EE20D
S21400415011E28881998122969F938F931F930F93E4
S2140041600E94E3560F900F900F900F90CE15DF052C
S21400417081F780ED90E20E942557DF91CF911F9145
S2140041800F91FF90EF900895CF92DF92EF92FF92FB
S2140041900F931F93CF93DF93CDB7DEB72C97CDBF8A
S2140041A0DEBF9FB7F89480915A2F811112C08FEF0F
S2140041B080935A2F9FBFCE0101967C0102EE1AE231
S2140041C00F2EFEEECF2EFAE2DF2EF02DF801DC01E8
S2140041D002C09FBF28C0808191818D939D931192CC
S2140041E01192EC15FD05B9F76DE082EE9AE20E9499
S2140041F0BC1FF801D7012D913D917D0180819181F1
S214004200820F931F99230CF40196959587958083CA
S21400421091830E5F1F4F0C151D0559F78FB7F89445
S21400422010925A2F8FBF2C96CDBFDEBFDF91CF9155
S2140042301F910F91FF90EF90DF90CF900895AF926F
S214004240BF92CF92DF92EF92FF920F931F93CF937E
S214004250DF93CDB7DEB76897CDBFDEBF81E0809332
S214004260072C8093402C8093792C8093B22C8093DB
S214004270EB2C8093242DE090AA2FF090AB2F80E0BB
S21400428091E00E94991D65E0CE0101960E94BC1F38
S21400429010E0812F0E94271D1F5F1630D1F78FEC8C
S2140042A097E00197F1F7000000C065E0CE010D969B
S2140042B00E94BC1F10E0812F0E94661D1F5F1630F3
S2140042C0D1F7CE010D969E012F5F3F4F5901EEEAC2
S2140042D0FBE240E050E010E061E070E0DC012D9190
S2140042E03D91CD01D501CD90DD905D012C193D09A4
S2140042F0C080D1802C153D051CF4208331830DC071
S2140043002C193D092531310544F09B01042E02C0CD
S214004310220F331F0A94E2F7122B4F5F5F4F32963D
S21400432046305105D9F6C7010E94991D1092072CF8
S2140043301092402C1092792C1092B22C1092EB2CEA
S2140043401092242D812F6896CDBFDEBFDF91CF91CE
S2140043501F910F91FF90EF90DF90CF90BF90AF909E
S214004360089583E0809301088093410880930109B3
S21400437093E390934606809366061092EC2880910D
S2140043808F24909190240E94D03A08958091EC2832
S214004390882324F48091EC28877008958FEF089581
S2140043A04F925F926F927F928F929F92AF92BF9240
S2140043B0CF92DF92EF92FF920F931F93CF93DF93EC
S2140043C0CDB7DEB72997CDBFDEBF182F7B010E9481
S2140043D0C62188230CF025C1812F877080688093C2
S2140043E0EC28A090712AB090722AAA0CBB1CAA0CCA
S2140043F0BB1CAA0CBB1CAA0CBB1CAA0CBB1C80902A
S214004400392B90903A2B880C991C880C991C880C98
S214004410991C880C991C880C991C812F90E0FC0133
S214004420EE0FFF1FE80FF91FEE0FFF1FE95DF24DBD
S214004430CE0101966C019E01295F3F4F290100E0E5
S21400444010E03F01608171816115710531F4DC0176
S2140044501D921C92D9011C9219C0AB01772324F43B
S21400446044275527461B570B4A0D5B1DDC014D9311
S2140044705C93D30111966C91660F660B660F6F5FA7
S214004480D9016C93080D191D040F151F329602965C
S2140044902F5F3F4F84159505A1F640E059E0FA01DD
S2140044A006A317A3A0E4B8E096960D931C939797DF
S2140044B080E098E0FC0106A317A329813A8122A791
S2140044C033A720A731A78B819C819A968D939C93C6
S2140044D09B9798968D939C9399978D819E81DA01F0
S2140044E09A968D939C939B9798968D939C93999769
S2140044F0A090392BB0903A2BAA0CBB1CAA0CBB1C64
S214004500AA0CBB1CAA0CBB1CAA0CBB1C40E020E0DF
S21400451030E06894882486F8992493F8612C68948F
S214004520772473F80F2E412CF9E05F2EF02DD6017C
S214004530ED91FD916D01309769F1413081F018F0F1
S2140045404230C9F023C0C801821B930BB8010E94F9
S2140045505252D30190968D939C93919717C0C801A1
S214004560821B930BB8010E945252D40190968D93F1
S2140045709C9391970BC0C801821B930BB8010E94B5
S2140045805252D20190968D939C9391972A0D3B1D83
S2140045902E0F3F1F4F5F433051F62017310709F4A7
S2140045A044C01F930F933F932F9388EF96E09F93FB
S2140045B08F930E94F7560F900F900F900F900F90CA
S2140045C00F9033C0E0E0F9E081818061818307C00D
S2140045D018162CF4E0E0F9E081818062818398016E
S2140045E0D7010E94AC52689414F8969587957795F3
S2140045F067951694D1F720E030E041EB51E20E9437
S2140046002A3D80938F2490939024892B61F489E32C
S21400461091E29F938F930E94E3560F900F9081E054
S21400462030C080E02EC081E02CC08F81882334F417
S214004630E0E0F8E08181806181831AC01816C4F436
S214004640E0E0F8E081818062818312C0E0E4F8E077
S21400465081818061818307C0181674F4E0E4F8E075
S214004660818180628183898588230CF0B1CFAACFAF
S214004670888588238CF7EACF898588230CF0A8CF15
S214004680A1CF2996CDBFDEBFDF91CF911F910F91AD
S214004690FF90EF90DF90CF90BF90AF909F908F905D
S2140046A07F906F905F904F9008958F929F92AF92F9
S2140046B0BF92FF920F931F93CF93DF93F82EEB01D9
S2140046C0E82FF0E0EE0FFF1FE154F44D008111815A
S2140046D086EE93E0801B910B8F3C974060F483E658
S2140046E091E20E94255785E08F1518F008E512E044
S2140046F002C000ED17E0BE0180E090E00E94654A2F
S2140047004B015C01B80180E090E00E94654A20E021
S21400471030E04AE754E40E94BD499B01AC01C50164
S214004720B4010E94BD494B015C018AE090E00E9402
S214004730333AC501B4010E94364A062F172F7F93DD
S2140047406F93DF93CF931F92FF928AEB96E09F932F
S2140047508F930E94F7568AE090E00E94333A602FCB
S214004760712F8F2D0E94D0218DB79EB708968DBFD2
S2140047709EBFDF91CF911F910F91FF90BF90AF909A
S2140047809F908F900895E82FF0E0EE0FFF1FE15402
S214004790F44D608371830895DF92EF92FF920F933A
S2140047A01F93CF93DF93C0E1D0E019C0CE010E94E3
S2140047B0C50BD82ECE0101960E94C50B2D2D30E0DC
S2140047C0322F2227282BF701219331937F0122963F
S2140047D0C017D10759F7E8010034110541F0CE01A2
S2140047E0895E924D7C018E010A5F1F4FDFCFCFEBB3
S2140047F0DBE2C8010E94C50BF82EC80101960E9494
S214004800C50B2F2D30E0322F2227282B29933993E2
S2140048100E5F1F4F0035110561F7DF91CF911F9195
S2140048200F91FF90EF90DF900895CF93DF93A0E471
S214004830B6E083E311968C931197E0E6F6E083E00A
S2140048408183C0E0D8E097E098838983C0E4D8E00D
S21400485098838983C0E0D9E09883898390E454964E
S2140048609C93549755969C935597908B918B90E379
S21400487016969C9386831092EC2884E190E08093B1
S214004880712A9093722A88E290E08093392B909355
S2140048903A2B0E94CC23DF91CF910895DF92EF92BE
S2140048A0FF920F931F93CF93DF93C0E1D0E016C023
S2140048B0F801D08061810E5F1F4FCE010E94E60B8B
S2140048C06D2DCE0101960E94E60B2296CE15DF05D1
S2140048D079F7E701F0E4EF16F10441F08E01095E86
S2140048E0124D7E0186E0E80EF11CE2CFCFEBDBE254
S2140048F0188169812296C7010E94E60B612FC701C5
S21400490001960E94E60BE2E0EE0EF11CF0E5EF16D3
S214004910F10471F7DF91CF911F910F91FF90EF9007
S214004920DF9008958F929F92AF92BF92CF92DF92C0
S214004930EF92FF921F93CF93DF938BEA96E09F93BD
S2140049408F930E94F7560F2EF7E2AF2EFDE2BF2E92
S214004950F02D0F900F90C12CD12C0F2EF1EA8F2E38
S214004960F6E09F2EF02D0F2EFCE9EF2EF1E2FF2E43
S214004970F02DDF92CF929F928F920E94F7560F9063
S2140049800F900F900F90E50110E088819981229694
S2140049909F938F93FF92EF920E94E3561F5F0F90B4
S2140049A00F900F900F90133081F780ED90E20E94E9
S2140049B025578FEFC81AD80A86E0A80EB11C88E0E3
S2140049C0C816D104B1F680ED90E20E942557DF911B
S2140049D0CF911F91FF90EF90DF90CF90BF90AF9058
S2140049E09F908F900895EF92FF920F931F93CF930F
S2140049F0DF9388E896E09F938F930E94F7560FEB1D
S214004A001BE20F900F90C0E0D0E00F2EFEE7EF2ED7
S214004A10F6E0FF2EF02DF801808191810E5F1F4F8A
S214004A209F938F93DF93CF93FF92EF920E94F75658
S214004A3021960F900F900F900F900F900F90C83008
S214004A40D10549F7DF91CF911F910F91FF90EF901D
S214004A500895E0EBF9E0918195FFFDCF8093B009D2
S214004A6081E090E00895E0E6F6E080E8818380E467
S214004A708283E0EBF9E083E0858387E1868384EA3E
S214004A80878384818061848384818860848380E3D3
S214004A9090E28093F72F9093F82F1092E6261092CC
S214004AA0E72680E283838AE090E00E941F570895FD
S214004AB00F931F93CF938091E6269091E726C82FF9
S214004AC09927FC01E356FB4D8081882381F005EF92
S214004AD01FE2F8016281738190E00E94AB56CF5FBF
S214004AE0EC2FF0E0E356FB4D80818111F2CF8C2F46
S214004AF090E08093E6269093E726CF911F910F9142
S214004B0008958091B0099091262D913039F4813422
S214004B1011F40E9458251092262D08959091942401
S214004B20992341F08B3519F481E08093262D10925D
S214004B30942408958D3011F08A30A9F480ED90E227
S214004B400E9425576091E6267091E726FB01E35602
S214004B50FB4D10828DE994E20E948B461092E62669
S214004B601092E72608958830A1F48091E626909169
S214004B70E726009729F001978093E6269093E7268C
S214004B8080EA91E29F938F930E94E3560F900F90D6
S214004B9008958B3121F481E0809394240895209128
S214004BA0E6263091E7262034310591F41F9280E402
S214004BB08F9384E397E09F938F930E94F75610920B
S214004BC0E6261092E7260F900F900F900F9008950C
S214004BD0F901E356FB4D80832F5F3F4F2093E62677
S214004BE03093E7266091F72F7091F82F90E00E949F
S214004BF0AB5608951F920F920FB60F9211240BB664
S214004C000F922F933F934F935F936F937F938F9360
S214004C109F93AF93BF93EF93FF930E948125FF91DD
S214004C20EF91BF91AF919F918F917F916F915F911F
S214004C304F913F912F910F900BBE0F900FBE0F908C
S214004C401F90189583E080932206E0E9F3E081E068
S214004C508083818388E08283838380E186830895CE
S214004C60E0E0F6E08FE1828387E0808B818B828BA9
S214004C70838B848BE0E8F3E080E18683828381E1A6
S214004C80838389E08083818308950E9422260E9480
S214004C9030260895CF93DF931F92CDB7DEB79FB728
S214004CA0F894813019F0823041F00EC0E0E8F3E06D
S214004CB088E1828389E1838309C0E0E8F3E080E24B
S214004CC0828381E2838302C0882301F1EFE1F3E06F
S214004CD03197F1F700C00000E0E8F3E087818983B0
S214004CE080E1828381E183839FBF8981807C8034D9
S214004CF029F0803829F0811105C006C080E00AC07E
S214004D008FEF08C08FE706C081E004C0809187035C
S214004D108983EACF0F90DF91CF91089580E00E94BB
S214004D204A26811114C081E00E944A2681110FC0D4
S214004D3082E00E944A2681110AC084EA91E20E941B
S214004D40255780E090E0892B11F00E94000008951E
S214004D501F920F920FB60F9211240BB60F92CF929E
S214004D60DF92EF92FF922F933F934F935F936F9351
S214004D707F938F939F93AF93BF93CF93DF93EF93DE
S214004D80FF930E9420086B017C018091A42B9091D8
S214004D90A52BA091A62BB091A72BA7019601281BA7
S214004DA0390B4A0B5B0B293C31054105510508F4CC
S214004DB0A8C08091860383FF53C087EA91E29F9341
S214004DC08F930E94E3568AE090E00E94333A82E096
S214004DD00E944A26D82F81E00E944A26C82F80E0EB
S214004DE00E944A262D2F0D2E000C330B3F93DF9387
S214004DF02C2F0C2E000C330B3F93CF93282F082E0E
S214004E00000C330B3F938F9381EB91E29F938F932C
S214004E100E94E356C092A42BD092A52BE092A62B1C
S214004E20F092A72B85E1809386038091582F90916E
S214004E30592F0E94D03A20E030E04EE856E264EF68
S214004E4071E080E090E00E942A3D8093582F909376
S214004E50592F4DB75EB7465F5F4F4DBF5EBF51C01F
S214004E608DEC91E29F938F930E94E3568AE090E048
S214004E700E94333A82E00E944A26D82F81E00E94A0
S214004E804A26C82F80E00E944A262D2F0D2E000CA1
S214004E90330B3F93DF932C2F0C2E000C330B3F93DA
S214004EA0CF93282F082E000C330B3F938F9381EB64
S214004EB091E29F938F930E94E356C092A42BD092C8
S214004EC0A52BE092A62BF092A72B8DE1809386036C
S214004ED08091582F9091592F0E94D03A20E030E0D0
S214004EE04EE856E264EF71E080E090E00E942A3DD2
S214004EF08093582F9093592F8DB79EB70A968DBFE3
S214004F009EBFFF91EF91DF91CF91BF91AF919F919F
S214004F108F917F916F915F914F913F912F91FF906D
S214004F20EF90DF90CF900F900BBE0F900FBE0F90BC
S214004F301F901895E0ECF0E080E2808388B18383D0
S214004F4089B183838AB183838BB183838CB1838356
S214004F508DB1838380B3838382B3838383B3838358
S214004F6084B3838385B38383A0E0B2E094968C9168
S214004F70949783839C968C919C978383D4968C91EC
S214004F808383A0E4B2E094968C91949783839C9656
S214004F908C91838381E08093EF2F80E191E0928370
S214004FA08150E9F784E88093C0001092F02F0895AE
S214004FB09091F02F911115C0E0ECF0E0818180FF18
S214004FC0FDCF09C022839150E9F794E89093C00082
S214004FD01092F02F08958091C20091E09093F02FE8
S214004FE008958091C2009F5F9093F02F903130F02B
S214004FF02091EF2F90E1E0ECF0E0E4CF0895CF931E
S2140050000E94D827C82F0E94D8272C2F30E0322F96
S2140050102227A901482BCA01CF9108951092E828AB
S2140050201092E9281092EA281092EB28EEEEFAE2A7
S21400503086E39BE21082118212821382148215820A
S2140050401682178210861186128613863C96E817FB
S214005050F90781F710925C2F10925D2F1092362B75
S21400506008954F925F926F927F928F929F92AF9227
S214005070BF92CF92DF92EF92FF920F931F93CF9340
S214005080DF93CDB7DEB72C97CDBFDEBF69837A83BB
S2140050908B839C8329013A01C801B701EC2DF0E00F
S2140050A0EE0FFF1FEE0FFF1FE25CFF4D20813181E8
S2140050B0428153810E94BE486B017C010E94B84920
S2140050C06D837E838F839887C701B6010E94834DC8
S2140050D069877A878B879C87C301B2010E94B8498B
S2140050E0B12C9501220F331F220F331F220F331FBF
S2140050F0890104551D4DF80180809180A280B380FF
S21400510029813A814B815C810E94C64C6B017C01EF
S214005110A50194016D817E818F8198850E94BD488E
S21400512028E93CE445E050E40E94C64C9B01AC01F3
S214005130C701B6010E94BE486B017C01C301B201E3
S2140051400E94834DF80144805580668077802981CF
S2140051503A814B815C810E94C64C69837A838B833B
S2140051609C83A301920169857A858B859C850E9424
S214005170BD4828E93CE445E050E40E94C64C9B014B
S214005180AC0169817A818B819C810E94BE486983CB
S2140051907A838B839C83A7019601C501B4010E9484
S2140051A0C64C4B015C0129813A814B815C81C3016D
S2140051B0B2010E94C64C9B01AC01C501B4010E941D
S2140051C0BE484B015C01C701B60190582D813E8157
S2140051D04F8158850E94C64C2B013C0129853A8593
S2140051E04B855C8569817A818B819C810E94C64C47
S2140051F09B01AC01C301B2010E94BD482B013C01DA
S21400520029813A814B815C81C701B6010E94254CF9
S2140052106B017C0120E030E0A901C501B4010E94C9
S214005220124C18160CF049C020E030E0A901C3016A
S214005230B2010E94124C18160CF043C02AE037ED5B
S21400524043E65FE3C701B6010E94BE4869837A83DE
S2140052508B839C83A3019201C501B4010E94C64CB6
S2140052604B015C0129813A814B815C81CA01B901FD
S2140052700E94C64C9B01AC0160E076EE8AE496E4A0
S2140052800E94BD492CE53FE84EE751E40E94BE4827
S2140052909B01AC01C501B4010E94C64C4B015C01E8
S2140052A0A7019601C701B6010E94C64C9B01AC013E
S2140052B0C501B4010E94BD4907C060E070E0CB01A3
S2140052C003C060E070E0CB012C96CDBFDEBFDF915F
S2140052D0CF911F910F91FF90EF90DF90CF90BF90EE
S2140052E0AF909F908F907F906F905F904F900895B3
S2140052F02F923F924F925F926F927F928F929F92E1
S214005300AF92BF92CF92DF92EF92FF920F931F93CE
S214005310CF93DF93CDB7DEB7CA5AD109CDBFDEBF74
S214005320C956DF4F688379838A839B83C759D040E9
S214005330C556DF4F288339834A835B83CB59D040D9
S214005340C156DF4FE882F9820A831B83CF59D040CB
S2140053509E012F5F3F4FC955DF4F28833983C75AB9
S214005360D0408EEE9AE2C755DF4F88839983C95A9C
S214005370D040B12C612C712C4301CD56DF4F688292
S21400538079828A829B82C359D040CD55DF4F2883CD
S2140053903983C35AD040CB55DF4F88839983C55A8B
S2140053A0D040230134016DC0AD2CCB2CC156DF4F4D
S2140053B0E880F9800A811B81CF59D040C556DF4F5F
S2140053C0288139814A815B81CB59D040C956DF4F4D
S2140053D0688179818A819B81C759D0400E94312893
S2140053E0F40161937193819391934F019B01AC01FA
S2140053F00E94C64C9B01AC01CD56DF4F6881798177
S2140054008A819B81C359D0400E94BE48CD56DF4F4B
S214005410688379838A839B83C359D040F101A19125
S214005420B1911F019D010E94A4520E94674A9B01F0
S214005430AC01C301B2010E94BE482B013C01D394CB
S214005440F6E0DF12B1CFB394CD55DF4F2881398116
S214005450C35AD040285E3F4FCD55DF4F288339834F
S214005460C35AD040CB55DF4F88819981C55AD0406A
S2140054700C96CB55DF4F88839983C55AD040BF160C
S21400548071F0CB55DF4F28803980C55AD040CD55B6
S214005490DF4F88809980C35AD040D12C85CF4301F6
S2140054A0320120E030E040E05FEBCD56DF4F688110
S2140054B079818A819B81C359D0400E94334DE62E64
S2140054C0372E282EC956DF4F9883C759D04020E084
S2140054D030E040E05FEBC401B3010E94334DC55697
S2140054E0DF4F6883CB59D040C156DF4F7883CF5902
S2140054F0D040CD55DF4F8883C35AD040CB55DF4FC1
S2140055009883C55AD040FE01EF56FF4FCF56DF4F67
S214005510E883F983C159D040412C512C32010E2D1D
S21400552076C0F601619171916F01F70181909190BB
S214005530A190B1907F01072E000C880B990B0E945A
S214005540674AC556DF4F2881CB59D040C156DF4F3A
S2140055503881CF59D040CD55DF4F4881C35AD0400F
S214005560CB55DF4F5881C55AD0400E94C64CCD5609
S214005570DF4F688379838A839B83C359D040202F6B
S214005580332D422DC956DF4F5881C759D040C5012B
S214005590B4010E94C64C9B01AC01CD56DF4F68811A
S2140055A079818A819B81C359D0400E94BD489B0166
S2140055B0AC015F77C301B2010E94BE482B013C01DB
S2140055C0115009F0AECFC755DF4F28813981C95A2F
S2140055D0D040245F3F4FC755DF4F28833983C95AD1
S2140055E0D040C955DF4F88819981C75AD040489628
S2140055F0C955DF4F88839983C75AD040CF56DF4FAF
S214005600E881F981C159D0408E179F0789F0C955A6
S214005610DF4FC880D980C75AD040C755DF4FE880D3
S214005620F980C95AD04016E0C70176016C0179CFDF
S214005630C301B201C655DF4FCDBFDEBFDF91CF91AC
S2140056401F910F91FF90EF90DF90CF90BF90AF909B
S2140056509F908F907F906F905F904F903F902F908D
S21400566008952F923F924F925F926F927F928F9201
S2140056709F92AF92BF92CF92DF92EF92FF920F93DC
S2140056801F93CF93DF93CDB7DEB76297CDBFDEBF54
S2140056908D879E876F87788B0F2EFEEE8F2EFAE211
S2140056A09F2EF02D212C412C512C320149865A86F2
S2140056B06B867C864D825E826F82788649825A82AD
S2140056C06B827C820F2EF6E0AF2EB12CF02D73018C
S2140056D06201122D1401F101619171911F01072ED3
S2140056E0000C880B990B0E94674A2B013C01FBEAD1
S2140056F01F9F012D112406950695802F880F800F79
S214005700880F812E881A912CC401880F991F880F44
S214005710991F880F991F9C0124553D4D298B3A8B64
S214005720F9012081318142815381C301B2010E9477
S214005730C64C9B01AC0169817A818B819C810E9459
S214005740BE4869837A838B839C83E989FA8924819E
S214005750358146815781C301B2010E94C64C9B0128
S214005760AC016D817E818F8198850E94BE486D83D5
S2140057707E838F839887C501801B9109880D991DAC
S214005780B5010E946652880F991F880F991F880FCF
S214005790991F9C0124583D4D4901F9012081318112
S2140057A042815381C301B2010E94C64C9B01AC01E9
S2140057B069857A858B859C850E94BE4869877A872D
S2140057C08B879C87F4012481358146815781C301EC
S2140057D0B2010E94C64C9B01AC01C701B6010E94F3
S2140057E0BE486B017C011F5F143209F074CF29811B
S2140057F03A814B815C816D817E818F8198850E9484
S2140058003D49ED85FE856083718382839383298578
S2140058103A854B855C85C701B6010E943D49EF85F8
S214005820F88960837183828393836296CDBFDEBFDF
S214005830DF91CF911F910F91FF90EF90DF90CF9067
S214005840BF90AF909F908F907F906F905F904F909B
S2140058503F902F9008956F927F928F929F92AF9273
S214005860BF92CF92DF92EF92FF920F931F93CF9348
S214005870DF936EEE7AE20F2EF6E3EF2EFBE2FF2EBC
S214005880F02D0F2EFFE3BF2EF02D00E010E02FC00E
S214005890DF014081518181E090E04115510511F40E
S2140058A080E090E0022E02C0880F991F0A94E2F76B
S2140058B08095B822C1E0D0E01416150614F0C0E0BA
S2140058C0D0E0C49FC001C59F900DD49F900D1124B9
